:100000000020001041010000FD000000010100007F
:1000100000000000000000000000000000000000E0
:1000200000000000000000000000000005010000CA
:100030000000000000000000090100000D010000A8
:100040001101000011010000110100001101000068
:100050001101000011010000110100001101000058
:10006000110100001101000000000000000000006C
:10007000000000000000000011010000110100005C
:100080001101000011010000110100001101000028
:10009000110100001101000000000000000000003C
:1000A0001101000011010000110100001101000008
:1000B0000000000000000000000000000000000040
:1000C000404C00000000001024000000404C0000E4
:1000D0000000002000000000404C00000040002014
:1000E00000000000240000101402000000000020A6
:1000F000000000000040002000000000FEE7C046B5
:10010000FEE7C046FEE7C046FEE7C046FEE7C04643
:10011000FEE7C04610B5002304E004680C60043319
:10012000043004319342F8D310BDC04600230022AE
:1001300002E00260043304308B42FAD37047C046B9
:1001400038B5164B1968C02212050A431A60144BC1
:10015000144C07E0186859681D1C0C359A68FFF7A5
:10016000D9FF2B1CA342F5D307E018681D1C0835E6
:100170005968FFF7DBFF2B1C00E00B4CA342F4D3C4
:100180000A4B1B681B690A4A196811605A68094BB7
:100190001A6001F067FA01F0ADFEFEE780800440CE
:1001A000C0000000E4000000FC000000F81FFF1F7A
:1001B000E4000010E0000010FFFFFFFFFFFFFFFF63
:1001C000FFFFFFFFFFFFFFFFFFFFFFFFFFFFFFFF3F
:1001D000FFFFFFFFFFFFFFFFFFFFFFFFFFFFFFFF2F
:1001E000FFFFFFFFFFFFFFFFFFFFFFFFFFFFFFFF1F
:1001F000FFFFFFFFFFFFFFFFFFFFFFFFFFFFFFFF0F
:10020000FFFFFFFFFFFFFFFFFFFFFFFFFFFFFFFFFE
:10021000FFFFFFFFFFFFFFFFFFFFFFFFFFFFFFFFEE
:10022000FFFFFFFFFFFFFFFFFFFFFFFFFFFFFFFFDE
:10023000FFFFFFFFFFFFFFFFFFFFFFFFFFFFFFFFCE
:10024000FFFFFFFFFFFFFFFFFFFFFFFFFFFFFFFFBE
:10025000FFFFFFFFFFFFFFFFFFFFFFFFFFFFFFFFAE
:10026000FFFFFFFFFFFFFFFFFFFFFFFFFFFFFFFF9E
:10027000FFFFFFFFFFFFFFFFFFFFFFFFFFFFFFFF8E
:10028000FFFFFFFFFFFFFFFFFFFFFFFFFFFFFFFF7E
:10029000FFFFFFFFFFFFFFFFFFFFFFFFFFFFFFFF6E
:1002A000FFFFFFFFFFFFFFFFFFFFFFFFFFFFFFFF5E
:1002B000FFFFFFFFFFFFFFFFFFFFFFFFFFFFFFFF4E
:1002C000FFFFFFFFFFFFFFFFFFFFFFFFFFFFFFFF3E
:1002D000FFFFFFFFFFFFFFFFFFFFFFFFFFFFFFFF2E
:1002E000FFFFFFFFFFFFFFFFFFFFFFFFFFFFFFFF1E
:1002F000FFFFFFFFFFFFFFFFFFFFFFFFFFFFFFFF0E
:1003000003781B024078C01880B270470B0A037054
:10031000417002307047C046F0B55F4656464D46C4
:100320004446F0B485B003900020804600263F2468
:10033000A1462E25AA464F1C02970C7801947542BF
:100340007541AC466044271C4D46AF43C02F0DD1CC
:1003500064460019019D4F463D402D0249786918B9
:10036000039C61184D1C02950C780126002C18D0B6
:100370001B1B013B1BB2002B1CDB002E00D1001904
:10038000029904E00C7814702C1C01310132651EB6
:10039000ADB2002CF6D1574617700124A0440132AB
:1003A000C9E74546002D02D12E23137001320023E8
:1003B000137001E00120404205B03CBC90469946D4
:1003C000A246AB46F0BDC04610B586B00C1C6A46CE
:1003D0001823FFF7A1FF431C02D02018043000E0CF
:1003E000002006B010BDC046F0B587B0061C0C1C3E
:1003F000171C6A461823FFF78FFF431C48D02418A8
:10040000201CFFF77DFF251C0A350F283ED88300EE
:10041000254AD3589F46A37A3B70E37A7B70237BAF
:10042000BB70251C0E35637BFB702FE0301C291C34
:100430006A461823FFF770FF431C2BD02D1825E0C8
:10044000221C0B32A37AD3185D1C1B78ED181DE01B
:100450000C34301C211C6A461823FFF75DFF431C37
:100460001AD0251812E0301C291C6A461823FFF701
:1004700053FF431C12D02D18301C291C6A46182328
:10048000FFF74AFF431C0BD02D181435281C08E039
:10049000002006E0002004E0002002E0002000E050
:1004A000002007B0F0BDC046D0490000F8B5041CDC
:1004B0000E1C171C0021042201F029FD301CFFF73F
:1004C0001FFF2080B01CFFF71BFF030401D5012391
:1004D000A37043041B0FE370430501D5012323716F
:1004E000830501D501236371C30501D50123A371E0
:1004F000030601D50123E3710F2318402072301D3C
:10050000FFF7FEFE6081B01DFFF7FAFEA081301CF0
:100510000830FFF7F5FEE081301C0A30FFF7F0FEEF
:100520002082311C0C31002506E0301CFFF74CFF07
:10053000011E23D00135ADB26389AB42F5D8002549
:1005400007E0301C3A1CFFF74FFF011E18D00135A1
:10055000ADB2A389AB42F4D8002301E001339BB2D2
:10056000E2899A42FAD8002301E001339BB2228A41
:100570009A42FAD8207A4342584102E0FF2000E034
:10058000FF2040B2F8BDC046F0B557464E4645463E
:10059000E0B486B0051C0C1C92462D4A138801332A
:1005A00099B211805046FFF7B1FEED02802149005B
:1005B000294389B2FFF7AAFE0121FFF7A7FE002118
:1005C000FFF7A4FE0021FFF7A1FE0021FFF79EFE2A
:1005D000071C6846211C03F04BF9684603F06AF9D2
:1005E00080B281466D46281C2E2103F037F9061E85
:1005F00002D0441BA4B200E04C467B1C98463C70E1
:10060000002C15D0181C291C221C03F07DF9434630
:100610001F19002E04D17B1C984600233B7007E075
:10062000631CED184B461C1B013CA4B2A146DAE743
:1006300040460121FFF76AFE0121FFF767FE53469E
:10064000C01A00B206B01CBC90469946A246F0BD46
:100650005C0000100A4B1B680120022B0ED90022FF
:10066000074B1A60074B1B78012B03D9054B1A70F7
:10067000FF2003E00133034A1370002040B27047AB
:100680005400001024000010034B1870034B196035
:10069000034A044B1A8070475000001058000010A5
:1006A000221100005C000010F0B5474680B48AB00B
:1006B000071C0E1C9046274D28780221002200239B
:1006C00000F0F2F9244C0020311C226880235B00EA
:1006D000FFF75AFF82B228782168352300933B1C2C
:1006E00000F07AFA1B4E307800F0F4F8051C021E78
:1006F00019D080235B00984200D91A1C154D287828
:10070000154E31686B460E33009304AB00F01AFBB4
:10071000316805A84246FFF7C9FE041C287800F09E
:100720008BF9201C10E0FFF795FF00280BDBDAD1D6
:10073000084B1878084B1968352300932A1C3B1C7A
:1007400000F04AFACFE7002040B20AB004BC90465D
:10075000F0BDC046500000105800001038B5051C10
:100760000C4CA3689847236998472802000EE36958
:1007700098472804000EE3699847E8B2E369984770
:10078000A3699847051C63699847E3689847281C44
:1007900038BDC04604000010F8B5051C0E1C0D4CF9
:1007A000A36898472369984704272F432802000E1F
:1007B000E36998472D04280EE3699847F8B2E36986
:1007C0009847301CE369984763699847E3689847FE
:1007D000F8BDC04604000010F0B5474680B4051CC3
:1007E0008846161C114CA36898472369984728022D
:1007F000000EE36998472804000EE3699847E3690F
:10080000E8B298470024094F06E043461D19BB692A
:10081000984728700134A4B2B442F6D3034C6369FC
:100820009847E368984704BC9046F0BD0400001068
:10083000F0B5474680B4061C0F1C151C124CA2686C
:100840009047236998470423334398463002000EAB
:10085000E26990473604300EE3699847E3694246FF
:10086000D0B298470024084E04E0385DF3699847F9
:100870000134A4B2AC42F8D3034C62699047E368F8
:10088000984704BC9046F0BD04000010F8B5002560
:100890004601083680239B01F71884239B01F61834
:1008A000381CFFF75BFF0402A4B2301CFFF756FFB1
:1008B0002418A4B2002C09D0381CFFF74FFF050202
:1008C000ADB2301CFFF74AFF2D18ADB2A542E7D1FB
:1008D000281CF8BDF8B500254601083698239B0171
:1008E000F7189C239B01F618381CFFF737FF04020A
:1008F000A4B2301CFFF732FF2418A4B2002C09D098
:10090000381CFFF72BFF0502ADB2301CFFF726FFA6
:100910002D18ADB2A542E7D1281CF8BDF0B5574659
:100920004E464546E0B40D1C141E29D08000814679
:10093000061C0136F60090229201B718381CFFF70A
:100940000DFF824694239B01F618301CFFF706FF2B
:1009500052461302C01880B2804603024846023055
:10096000C0001818291C221CFFF762FF4444A4B2DF
:10097000210A381CFFF710FFE1B2301CFFF70CFF13
:100980001CBC90469946A246F0BDC046F0B55746FD
:100990004E464546E0B40D1C141E29D08000814609
:1009A000061C0136F600A0229201B718381CFFF78A
:1009B000D5FE8246A4239B01F618301CFFF7CEFE1D
:1009C00052461302C01880B28046030248460330E4
:1009D000C0001818291C221CFFF7FEFE4444A4B2D4
:1009E000210A381CFFF7D8FEE1B2301CFFF7D4FE15
:1009F0001CBC90469946A246F0BDC046F8B50F1CF7
:100A000044010834A0239B01E618301CFFF7A6FE22
:100A1000051CA4239B01E418201CFFF79FFE2D0258
:100A20004519ED19ADB2290A301CFFF7B5FEE9B240
:100A3000201CFFF7B1FEF8BD70B5051E082D29D8A2
:100A400046010836741CFF34201C1021FFF7A4FE59
:100A5000201CFFF783FE0028FAD180239B00F018AA
:100A60001F21FFF799FE0121A9400C4B1A888A43E8
:100A70001A806A0000210A4BD1520A4B00225A55B3
:100A8000C0239B00F418201CFFF768FE0028FAD151
:100A9000012000E0FF2040B270BDC04628000010D9
:100AA000340000102C000010F0B5474680B4051C3F
:100AB0000F1C141C1E1C082871D8002971D0022993
:100AC00001D904296DD1062333426CD1002E12D0F6
:100AD000012F02D0022F04D00DE0212333420AD18E
:100AE00063E0B30602D573B2002B60DAF30602D5D9
:100AF00073B2002B5DDA281CFFF79EFF6B010833F1
:100B000098460F23311C994339434046FFF744FE72
:100B1000002C0AD1294A1488631C9BB21380284AEE
:100B2000934202D1274A254B1A808023DB00181CF0
:100B30004044210AFFF730FEE1B2A023DB00181C7D
:100B40004044FFF729FE80235B001C1C4444201C0A
:100B50000121FFF721FE201CFFF700FE0028FAD13B
:100B600001231E40AE40184B1A8816431E800121F7
:100B7000A940164B1A888A431A806B000021144A38
:100B80009952144B00225A55C0239B001C1C44440C
:100B9000201CFFF7E3FD0028FAD0E8B20AE0FF20AE
:100BA00008E0FB2006E0FA2004E0FA2002E0FA2048
:100BB00000E0FA2040B204BC9046F0BD00000010F6
:100BC000F0FF000000C0FFFF26000010280000100A
:100BD000340000102C000010F0B55F4656464D461C
:100BE0004446F0B483B0061C019191461D1C0CAB29
:100BF0001C88082800D986E08046430108339B46BC
:100C0000181CFFF7ABFD0F231840022801D0042861
:100C10007CD14A46002A7CD02B68002B7CD0002C4B
:100C20007DD0C0229200171C5F44381CFFF796FD50
:100C3000422801D0222875D1C0231B01181C58441A
:100C4000291C0422FFF7F4FD210A80225201101C06
:100C50005844FFF7A1FDE1B288235B01181C5844FA
:100C6000FFF79AFDF8225201101C5844FFF776FD59
:100C70008502ADB2A94500D84D46314B9A460122B6
:100C80009146301CFFF702FE041C381CFFF766FD7E
:100C900000284AD052461388424613414A461A4217
:100CA00001D0AC4244D3AC42EBD3301C01992A1C96
:100CB000FFF734FE80235B001C1C5C44201C2021B9
:100CC000FFF76AFD201CFFF749FD0028FAD18022BA
:100CD0009200141C5C44102708239846201CFFF740
:100CE0003DFD074205D0201C1021FFF755FD281CB3
:100CF0001FE042460242F1D0201C0821FFF74CFDC4
:100D00000D20404215E00120404212E00520404203
:100D10000FE00E2040420CE00C20404209E00B2086
:100D2000404206E00720404203E00420404200E049
:100D3000002003B03CBC90469946A246AB46F0BDAD
:100D400026000010F0B55F4656464D464446F0B4C6
:100D500087B0051C029192460393082800D9D8E079
:100D6000061C430108339B46181CFFF7F7FC019053
:100D70000F230340022B02D0042B00D0CCE05046BE
:100D8000002800D1CBE06B006C4A9B5A002B1DD190
:100D9000C02189000F1C5F44694A9146012398468F
:100DA000281CFFF797FD041C381CFFF7D7FC002810
:100DB00000D1B7E04846038833414146194202D08A
:100DC000002C00D1B1E0002CEAD000E00024002289
:100DD0005C4B5A550723019A1340022B02D0042B77
:100DE0003DD073E06B00554A9B5A002B2BD1281C39
:100DF00004A90822FFF7CAFD80235B001C1C5C4489
:100E0000201C4021FFF7C8FC201CFFF7A7FC00288E
:100E1000FAD16846037C03990B70437C4B70837C4A
:100E20008B70C37CCB70037D427D1B02D318109A5C
:100E30001380827D6B00C17D120289183F4A99524E
:100E40008022404B5A556B003C4A9C5A544500D96D
:100E50005446281C0299221CFFF798FD3DE06B00C8
:100E6000364A9B5A002B25D1281C04A90222FFF7E1
:100E70008DFD80235B001C1C5C44201C4021FFF77F
:100E80008BFC201CFFF76AFC0028FAD16846037C23
:100E90006A00417C1B02CB189BB2284953522A4A54
:100EA000934204D9281CFFF7C7FD28483EE0802262
:100EB000244B5A556B00214A9C5A544500D954463C
:100EC000281C0299221CFFF761FD06E0281C211C4A
:100ED000FFF794FD6B00194A9C52802149000E1CBB
:100EE0005E44301C4021FFF757FC301CFFF736FCF6
:100EF0000028FAD1114A69008B5A1B1B9BB28B52F6
:100F0000002B04D00F4B595D01220A435A55201C77
:100F10000CE00120404209E00520404206E00E209E
:100F2000404203E00420404200E0002007B03CBC07
:100F300090469946A246AB46F0BDC046340000102C
:100F4000260000102C000010EA05000017FCFFFF2F
:100F50007047C0467047C0467047C0467047C0469D
:100F60000078C0B27047C0460170704700207047DB
:100F70007047C046002801D0002905D1044B054A1E
:100F80001A61054A5A6102E0014B186159617047C4
:100F900004000010590F00005D0F000010B50A4C4E
:100FA0008022920023881342FCD0002801D000291F
:100FB00005D1054B054A9A61054ADA6102E0024B08
:100FC0009861D96110BDC046040000106D0F00008B
:100FD000710F0000F0B587B090273F01381C01A9C0
:100FE0000622FFF7F9FB80267600301C05A90422B3
:100FF000FFF7F2FBA025ED00281C04A90422FFF74F
:10100000EBFBF0242401201C03A90422FFF7E4FBDE
:1010100000208021FFF7C0FB0020FFF79FFB381C5A
:1010200001A90622FFF704FC301C05A90422FFF7E2
:10103000FFFB281C04A90422FFF7FAFB201C03A9CC
:101040000422FFF7F5FB07B0F0BDC04670B5061CE3
:101050000D1CFFF7BFFF002E07D11CE05AB2B25C97
:101060005118C9B20133DBB201E0002100235AB2AA
:10107000072AF3DD49B210292FDC002408E063B20F
:101080005801184A8018F15CFFF786FB0134E4B27E
:1010900063B2072BF3DD002200230020002D1FD0B8
:1010A00005E059B2695C8A18D2B20133DBB259B299
:1010B0000729F6DD52B2102A11DC002408E063B2E1
:1010C0005801094A8018E95CFFF766FB0134E4B275
:1010D00063B2072BF3DD002002E0FF2000E0FF20D9
:1010E00040B270BD081F0000081E000010B5040AC1
:1010F000F0210140A8204001FFF74EFBB82040013D
:10110000211CFFF749FB10BD10B5A8204001FFF7D7
:1011100025FBF023041C1C40B8204001FFF71EFBF8
:10112000000280B20419A0B210BDC04610B5C1B211
:10113000040AB0204001FFF72FFBC0204001211C12
:10114000FFF72AFB10BDC04610B5B0204001FFF7E5
:1011500005FB041CC0204001FFF700FB0002001942
:1011600080B210BD08B5B8208001FFF7F7FA01235F
:10117000184008BD08B5B8208001FFF7EFFA30230A
:101180001840431E984140B208BDC04610B5B8246F
:10119000A401201CFFF7E2FA7F210140201CFFF789
:1011A000FBFA201CFFF7DAFA802149420143C9B259
:1011B000201CFFF7F1FA10BD08B5017801394B4248
:1011C000594189014378012B02D13823194310E09A
:1011D000C378012B08D18378012B02D1182319433E
:1011E00007E00823194304E08378012B01D1102381
:1011F0001943B8208001FFF7CFFAFFF7C7FF08BDFA
:1012000010B5041CB8208001FFF7A8FA4306DB0FD5
:10121000237038230340202B01D0382B02D1012228
:10122000627001E000226270182B03D0202B01D0E5
:10123000102B02D10122A27001E00022A270182B13
:1012400003D0202B01D0082B02D10123E37001E051
:101250000023E37010BDC04638B5041CB8208001DF
:10126000FFF77CFA430621D5C721031C0B40012C54
:1012700002D13021194301E038211943B825AD01CD
:10128000281CFFF789FAFFF781FF281CFFF766FA91
:10129000012C05D100233022024208D1FF2306E0B1
:1012A00000233822024202D1FF2300E0FF2358B27C
:1012B00038BDC04630B583B00C1C002300930193A9
:1012C0000F2803D880003D4B1B589F46FF2072E03B
:1012D000FFF780FE00206EE0002902D00091083464
:1012E000019400980199FFF7B1FE64E00888FFF7C8
:1012F000FDFE00205FE0FFF707FF208000205AE09E
:101300000888FFF713FF002055E0FFF71DFF20803E
:10131000002050E00988090A98204001FFF73CFAB4
:101320002178A0204001FFF737FA002043E0982001
:101330004001FFF713FA051CA0204001FFF70EFA49
:101340002D0240192080002035E01D4B9A780A704C
:10135000DA784A701A798A705A79CA709B790B7157
:1013600000234B71002026E0FFF710FF002022E051
:10137000081CFFF721FF00201DE0081CFFF740FFBD
:10138000002018E00878FFF767FF14E0FFF7F2FE8F
:10139000C0B2FF280CD0207000200CE0FFF7E2FE66
:1013A000C0B2FF2806D02070002004E0002002E038
:1013B000FF2000E0FF2040B203B030BD104A000023
:1013C0000400001010B5041C90200001211C06220E
:1013D000FFF72EFA211C0E31802040000422FFF777
:1013E00027FA211C0A31A020C0000422FFF720FAAE
:1013F000A11DF02000010422FFF71AFAA27C064B7F
:101400001A70E27C5A70227D9A70627DDA70A27D39
:10141000024B1A7010BDC046480000104400001076
:1014200010B5041C90200001211C0622FFF7D4F9FE
:10143000211C0E31802040000422FFF7CDF9211C31
:101440000A31A020C0000422FFF7C6F9A11DF02038
:1014500000010422FFF7C0F9064B1A78A2745A78EB
:10146000E2749A782275DB786375034B1B78A37559
:1014700010BDC046480000104400001010B5041C08
:101480003A23021C9A4309D10020FFF767F904436D
:10149000E1B20020FFF780F9002000E0FF2040B219
:1014A00010BDC04608B50020FFF758F908BDC0467A
:1014B00010B5041C0178D8204001FFF76DF9618850
:1014C000090AC8204001FFF767F9A178D020400140
:1014D000FFF762F910BDC04638B5041CD8204001A2
:1014E000FFF73CF92070C8204001FFF737F9051CD1
:1014F000D0204001FFF732F92D024519658038BD33
:1015000010B50C1C052820D88000114B1B589F4695
:10151000081CFFF757FF002018E0081CFFF780FFAA
:10152000002013E00878FFF7A9FF0FE0FFF7BAFFEC
:10153000207000200AE0081CFFF7BAFF002005E039
:10154000081CFFF7C9FF002000E0FF2040B210BDDB
:10155000504A000010B5144C201C002106228223A2
:1015600000F0DCFA201C00210822812300F0D6FACA
:10157000201C00210922812300F0D0FA201C002128
:101580000222102300F0CAFAA023DB058022920178
:101590009858042101439950012199709C580820C2
:1015A00020439850D97010BD0040044010B5FFF79B
:1015B000D1FF0B4C201C00F0FBFB2368FF22934360
:1015C000072213432360201C012100F0BBFB201CD9
:1015D000044900F0C3FB626802231343636010BD3B
:1015E00000000440001BB70000B583B001A81249F9
:1015F000042200F088FC00F001FA00F089F90020D4
:10160000012100F073F90120012100F06FF902209F
:10161000012100F06BF9FFF7C9FF00F0CBF800F0F3
:1016200099F800200549FFF72FF801A804496A46F8
:10163000FFF73AF8FEE7C046684A00006000001075
:101640006C4A000010B5024B1B68984710BDC0469D
:10165000E400001010B5024B1B68984710BD000055
:10166000E000001008B500F0B9F908BD0022A02381
:10167000DB059A707047C0460122A023DB059A70F3
:101680007047C04600B583B069460731087003480B
:10169000012200F093FA03B000BDC04600000440F0
:1016A00010B582B06C4607340348211C012200F0BB
:1016B000E1FA207802B010BD0000044082B0019031
:1016C00002E0019B013B0193019B002BF9D102B089
:1016D0007047C04670B58AB004AC0120211CFFF7EA
:1016E0000FFF21786278A378E678257960790096F3
:1016F00001950290124801F06DF9A179E279237AFF
:10170000607A00900F4801F065F9A17BE27B237CB1
:10171000607C00900C4801F05DF9A17AE27A237BAD
:10172000607B0090094801F055F9A17CE27C237DA3
:10173000607D0090064801F04DF90AB070BDC046CA
:101740008C4A0000B44A0000C84A0000DC4A00008D
:10175000F04A000010B586B00023049368468375F4
:101760001123037022234370332383704423C370F7
:101770005523037166234371C0218171A822C27170
:101780000123037264206C466072A172E2722373BB
:101790006373FF23A373E37323740823A374E374B5
:1017A0002375637500206946FFF7AAFEFFF792FFD5
:1017B00006B010BD10B584B068461249102200F082
:1017C000A2FBA024E4050023E3700F48FFF776FF97
:1017D0000123E3700D48FFF771FF0D480D49FFF736
:1017E000C9FB0D480D49FFF7D9FB01206946FFF7FA
:1017F00061FD013003D10A4801F0ECF8FEE704B0C6
:1018000010BDC0467C4A000088130000102700006D
:101810006D16000079160000A11600008516000064
:10182000044B0000F0B54F4680B40023A022D2053F
:1018300001269C4613E00C49C85C0C4CE15C8025F9
:101840002D014419A400A758B946371C8F404D46B6
:101850002F43A7504001411867468F540133022B94
:10186000E9DD04BC9146F0BD204B0000284B000090
:1018700000B583B06946073108700348012200F0C3
:1018800009FB03B000BDC0460080004070B50E1CCF
:10189000151C002403E0305DFFF7EAFF0134A54288
:1018A000F9D8281C70BDC04610B50E4C201C002174
:1018B0001222012300F032F9201C002113220123FF
:1018C00000F02CF9084C201C00F0C0FA201CE1218B
:1018D000490200F0F1FA0323E3608123A36080232F
:1018E000236310BD004004400080004002280AD855
:1018F000054B1A5C054B1B5C012041405201D2187C
:10190000A023DB05D1547047204B0000284B00007A
:1019100008B5FFF7C9FFA020C00500F0F5F8FFF7F4
:1019200081FF00200021FFF7E1FF01200021FFF7E8
:10193000DDFF02200021FFF7D9FF08BD00B583B00D
:10194000202000F071FA0023019302E0019B013393
:101950000193019BFF2BF9DD012000F06DF8802041
:1019600000F054FA23220C4B9A60802000F05CFABD
:1019700009490122CB681A42FCD00122064B9A6722
:10198000064B1A6903218A4302210A431A61032084
:1019900000F05CF803B000BD0080044000C00340CC
:1019A00070B50B4A8023D058802149020143D150A1
:1019B0000024084D084E08E0A1006A185388495DCC
:1019C0005278301C00F0AAF80134112CF4D970BD03
:1019D000008004402C4B00000040044008B5FFF795
:1019E000ADFFFFF7DDFF044A8023D0588021C904F2
:1019F0000143D15008BDC0460080044008B500F046
:101A000079F8014B186008BDE800001008B5C20560
:101A1000120F1F2101409200034BD05801314900A1
:101A2000FFF718FE08BDC046744B00001F23184086
:101A3000013048437047C046034B186400225A6483
:101A400001225A647047C04600800440034B186767
:101A500000225A6701225A677047C046008004403E
:101A600008B5024B586AFFF7D1FF08BD008004405B
:101A7000074B1A6C0323134002D0012B02D004E061
:101A8000044803E0044B186800E000207047C0469B
:101A900000800440001BB700244B000010B5044B2D
:101AA0009C68FFF7E5FF011C201CFFF7BFFF10BD7E
:101AB0000080044008B50D4B1A6F03231340012B1F
:101AC00009D002DC002B0FD003E0022B06D0032B41
:101AD00007D0002009E0FFF7CBFF06E0FFF7C0FFCB
:101AE00003E0FFF7DBFF00E0014808BD0080044091
:101AF000001BB70008B5FFF7DDFF024B996FFFF73A
:101B0000A9FD08BD00800440034A8023D05840212D
:101B10000143D1507047C04600800440002902D1E3
:101B20009200135002E01832920013507047C046E2
:101B30001223034A904200D10B23181C7047C04661
:101B400000000440024BC018431E984140007047FB
:101B50000000FCBF054B984203D19423044AD150A6
:101B600002E09C23024AD1507047C0460000044066
:101B70000080044010B5041CFFF79CFF074B9C42FB
:101B800005D19423064AD158FFF764FD04E09C2355
:101B9000034AD158FFF75EFD10BDC0460000044067
:101BA0000080044010B50468034B23400906090C6B
:101BB00019430160026110BDFF00FFFFF0B5474609
:101BC00080B48846042400E08368C3681C42FBD1CB
:101BD0000323036203680F242340072B1CD8002330
:101BE000002602218C460127042537E0C3686146A0
:101BF000194207D0964205D241460B8883600223E2
:101C00009844023683691F4202D02DE08368023473
:101C1000C3681D42FAD105E00024002602218C464B
:101C2000012704259642E1D39442DFD31AE0C46829
:101C30006146214207D0964205D241460C78846025
:101C40000124A04401368469274202D00EE0846852
:101C50000133C468254201D09342F8D39642E6D3BB
:101C60009342E4D3301C02E0002000E0002004BCDA
:101C70009046F0BDF0B54F464646C0B4042400E09F
:101C80008368C3681C42FBD10323036203680F24EB
:101C90002340072B21D8002600230224A446FF2737
:101CA000B8460124A14604253CE0C46867462742A3
:101CB00004D0964202D244468460023684694F467C
:101CC000274204D034E084680C8002310233C468B7
:101CD00025420BD09342F6D308E0002600230224CD
:101CE000A446174FB8460124A14604259642DCD3EA
:101CF0009342DAD31AE0C4686746274204D096427A
:101D000002D244468460013684694F46274204D09B
:101D100010E084680C7001310133C468254201D0A1
:101D20009342F6D39642E6D39342E4D3181C02E0E2
:101D3000002000E000200CBC90469946F0BDC04653
:101D4000FFFF0000002904D043680422934343604E
:101D500003E042680423134343607047F0B55746DD
:101D60004E464546E0B482460D1CFFF703FF804611
:101D70000227012040420026B1460CE0741C391CA9
:101D800061434046FFF766FCA84204D9261EFF2E99
:101D900001D902374E46A842F0D85046311C3A1CB1
:101DA000FFF700FF1CBC90469946A246F0BDC04616
:101DB00070B5041CFFF7BCFE124D8023EA580126C3
:101DC000311C8140081C1043E850201C0121FFF702
:101DD000C1FE201CFFF7B6FE6B688640B3436B6004
:101DE0006B681E436E6063680422934363602368DC
:101DF000FF229343072213432360201C0249FFF76D
:101E0000ADFF70BD00800440A0860100054A8E230E
:101E10009B00D1580843FF210840ED2109020843E7
:101E2000D05070470080044010B5074A8E239B00B5
:101E3000D458FF210C4001408C43211CED200002AE
:101E40000143D15010BDC0460080044010B5084B7E
:101E500080229C58802149012143995001219822D8
:101E60009950072383600323C3601023836210BD4E
:101E70000080044030B50023202503E00C78046086
:101E800001310133934202DA44692542F6D1181C2C
:101E900030BDC046F8B5071C0D1C141C002607E019
:101EA000381C291C221CFFF7E5FF241A36182D18B0
:101EB000002CF5DC301CF8BD70B5041C0E1CFFF7BF
:101EC000F9FD051C3101FFF7C5FB011C020A1602D2
:101ED000861BE06880231843E060FF2006402660F0
:101EE00002406260E2689A43E260281CFFF7B2FB9E
:101EF00070BDC04608B50020011C021C00F092FD18
:101F0000FFF772FB08BD08B502F023FD08BD08B558
:101F100002F035FD08BD41180B78342B01DC0020A0
:101F20001CE0352B06D10B1C01331A78302AFBD06C
:101F3000002AF4D00B1C013B1A78392A02D1302236
:101F40001A70F8E701321A700378302BE7D00B1AB9
:101F500003D40B7801398B70F9E70120704770B515
:101F6000051C0C1C8E1FB4420CD0281C0A21FFF744
:101F700069FB0A235B4243433035ED18013C657031
:101F8000051CF0E770BD00000EB410B591B013ABA6
:101F900004CB041C0021282206A80593FFF7B7FFF5
:101FA0000A230993124B059A0893139B01920093FD
:101FB000104B06A802930D4B0B4A069400F084FDCB
:101FC000089B041C013B0893002B03DB069A0023AB
:101FD000137003E0002006A901F0E4FC201C11B0FE
:101FE00010BC08BC03B01847FFFFFFFFFFFFFF7FD7
:101FF000FFFFFF7FF91F0000F0B50E684C68A5B029
:1020000007920A93321C231C0C920D930B900D988F
:1020100043005B0D0F930F9D994B9D422AD1020304
:10202000079C051C0C980023120BE37002436E23DF
:10203000002A14D16922637066232270A370002DD8
:1020400003DA904B2A9C236011E00A9DAD0704D46B
:102050000A9C640708D58C4B07E08C4B05E0079C75
:10206000612223706270A370894B2A9D2B6003202C
:1020700000F080FC0B9D20239D432B1C0025412B51
:1020800000D15AE2301C211C704B6F4A02F09AFBBF
:10209000A84205D08020000601252418109500E0F4
:1020A0001090301C211C694B674A02F06FFB00281E
:1020B00000D021E217AA211C301C01F085FD179CDD
:1020C000189019912E20FF30604372494018FA2170
:1020D0008900FFF7B7FA021B08905D485D4901F0DF
:1020E000B3FD089C22902391002C05DA5A4A5B4BE1
:1020F00064421E921F9307E0089D594A594B1E9255
:102100001F93002D16D02C1CE00709D52298239987
:102110001E9A1F9B01F0D0FF22902391012C09D021
:102120001E981F991E9A1F9B01F0C6FF64101E90F7
:102130001F91E9E718981999229A239B02F080F8D9
:102140001A901B911A981B99474A484B02F03AFB88
:10215000002813D01A981B99454A464B01F0ACFF52
:10216000434A444B089C1A901B9122982399013CA6
:10217000089402F065F822902391E3E71A981B99DE
:102180003D4A3E4B02F096FB002813D01A981B994B
:10219000374A384B02F054F8354A364B089D1A90AE
:1021A0001B91229823990135089501F085FF229013
:1021B0002391E3E71A981B9902F08AFA089C099088
:1021C00063421194002C00DA1193099802F0D3FABB
:1021D000179B089DEA1A01F037FD1C4B1A4A1A900A
:1021E0001B911C921D93002D56DA1B481B491E9013
:1021F0001F91209221931E9E1F9F1E981F990026BB
:10220000321C3B1C02F0CCF8209C219D021C0B1CB4
:10221000201C291C02F0B8F9114A124B2090219180
:102220001E961F971E981F9901F046FF021C0B1C5B
:102230000748084902F0B4F8094A0A4B02F000F8CE
:102240002090219132E0C046000000000000000014
:10225000000000000000F03F9A9999999999C93FB0
:10226000000000000000144000000000006AF84078
:1022700000000000000024400000000080842E4187
:10228000FF070000E64B0000B64B0000B44B000017
:10229000344C000084EAFFFF089CC449C2481E90E9
:1022A0001F9120922193002C00D17FE0119D0E956B
:1022B0000E9CE40743D51A981B99209A219B1C9CDD
:1022C0001D9D129413951E9C1F9D209E219F01F021
:1022D000F3FE321C149015913B1C201C291C02F0AB
:1022E00053F9021C0B1C1298139901F0E5FE021C15
:1022F0000B1C1498159902F047F91C901D911A981F
:102300001B991E9A1F9B01F0D7FE1A901B911A9ED3
:102310001B9F1A981B990026321C3B1C02F040F8A8
:102320001C9C1D9D021C0B1C201C291C02F02CF95E
:102330000E9D1C901D911A961B97012D36D0209E44
:10234000219F1E9A1F9B101C191C209C219D02F08E
:102350001BF9221C2B1C02F017F9021C0B1C301C51
:10236000391C01F0A9FE209021911E981F991E9AF8
:102370001F9B01F0A1FE1E901F911E9E1F9F1E9885
:102380001F990026321C3B1C02F00AF8209C219D5C
:10239000021C0B1C201C291C02F0F6F80E9C20903D
:1023A000219164101E961F970E9481E71A981B992D
:1023B000189A199B02F042FA002803D1099D013DA9
:1023C000099502E7189819991A9A1B9B01F0E8FFE2
:1023D00018901991189819991C9A1D9B01F0E0FF0B
:1023E0001890199118981999229A239B01F028FFA7
:1023F0006F4A704B189019911898199901F05CFE6A
:10240000189019911898199902F062F9189E199F5D
:10241000041C02F0B0F9021C0B1C301C391C01F02A
:10242000BFFF634A634B01F047FE1890199118985B
:10243000199902F04DF9061C002E03DA5E48013CA2
:102440003618F9E75D4B9E4203DD5D49013476188D
:10245000F8E7002C05DA099D574A013DA4180995B3
:10246000F7E79C4205DD099D55480135241809957B
:10247000F7E7099D534B9D4219DC201C5249FFF799
:10248000E1F8099B0A277B43051C1B184E49301CA9
:102490000993FFF7D7F84D4B5D43434364197C43E1
:1024A000089DF3183E1C24185E43013D22E0434B77
:1024B0000998984226DD0A21FFF7C4F80A277F42CF
:1024C000031C7B43EB183C4D09906B43E318181C2D
:1024D0000A210E93FFF7B6F8041C381C60430E99CE
:1024E00008186843301805300A21FFF7ABF8089D3B
:1024F000061C0135089505E0052300265B4208937C
:10250000341C099607983025011C0570063109987E
:10251000FFF725FD0799201C0C31FFF720FD0799D7
:10252000301C1231FFF71BFD079C0023E574089D4A
:1025300023750535109CAD002543E80701D5244BD4
:102540000AE00A9CA40704D40A9C640703D5214B23
:1025500002E0214B00E0214B2A9C2B9823600123B1
:102560009D43EB179B0F0B995D19AD100468612912
:1025700011D007DC452900D188E0472967D04129DF
:1025800063D108E00B9A662A00D108E1672A5ED081
:10259000652A5AD17AE00D9B0F9D1803000B002D80
:1025A00020D00F496B1822E000000000000014400A
:1025B0000000000080842E4140420F003F420F0087
:1025C000C0BDF0FF9F860100A08601006079FEFF7C
:1025D000E64B0000B64B0000B44B0000344C00004A
:1025E00001FCFFFF0C9A0F9B024300D0C64B002C4E
:1025F00010D10A9D2D070DD40B9C612C01D1C3492C
:1026000000E0C3490F9A501E824130320798FFF70D
:10261000BBFC11E00B9D612D01D1BE4900E0BE491C
:102620000F9A0190551EAA410C9D029330320095DD
:102630000798231CFFF7A8FC0D99002901DBB74B75
:1026400000E0B74B2A9C236094E167200B900A9925
:1026500080231B0119430A91002C02DC2B9C0123CF
:1026600023602B9C12212368112B00DC591C079836
:10267000FFF751FC2B9C2D1823689D4200DA88E05F
:102680002B9C013B23600B9C023C0B942B9C2368EE
:10269000112B05DD2D9C113B23602B9C1123236006
:1026A0002B98802600680A99041C360102340E40DB
:1026B00004D10798211CFFF72EFC2D18079A2B98A0
:1026C000537813700368002B03D1964B0A99194273
:1026D00003D0079A2E23537000E001242D9803683D
:1026E000002B03DD07993E230B550134002E10D03B
:1026F0000A9A12070DD407980319013B1B78302B57
:1027000001D1013CF7E73E2BFBD02E3B5A4253410F
:10271000E41A0B9A0799631C0A550234002D04DA57
:102720002D226D42261CCA5403E007982B22261C3A
:10273000C2547D4B9D420CDDFA21281C8900FEF716
:1027400081FF0799031C30330B55784B661C5843A7
:102750002D18632D0CDD281C6421FEF773FF079CE8
:10276000031C3033A35564235B42584301362D18B4
:10277000281C0A21FEF766FF0A225242031C50431E
:10278000079C30333035A3552818A3195870B01C56
:10279000F0E0281D00DA73E7EA439B1823602B9CC6
:1027A000802322681B01002D51DA6E42511C8E429B
:1027B00009DD079D30232B702E236B7020682D9C24
:1027C000206002243BE05219941C122C03DD2D9C46
:1027D000113A226013240A9818420CD10798211C40
:1027E000FFF799FB002806D0EE430134002E02D1FA
:1027F000079D6B780DE0079D2B19012E0DD1079DCC
:102800005A1B002A03DD1A78013B9A70F7E701345E
:1028100030232B702E236B7011E0079D5A1B002A6A
:1028200003DD1A78013BDA70F7E730232B702E2393
:102830006B703C23AB702C9D013E02342E602D9DAD
:102840002B68002B75DD079D3E232B5527E0AE1826
:10285000B41C122C41DD0A981324184207D10798A2
:10286000211CFFF758FB002801D001351424621EFB
:10287000079B954215DA5A7807991A7001335A1A4C
:10288000AA42F8DD4B192E225A702B9A2D9B126802
:10289000AD18113D1D60002D4BD03E230B5501346A
:1028A00047E05978079819700133191A9142F8DBFB
:1028B00003192D1B2C99013B3C2202351A700D6027
:1028C0002E222B9D02552A68631C002A30D02D9D94
:1028D00002342A603E22C2542BE00A98184207D1E3
:1028E0000798211CFFF717FB002801D00135F41CC5
:1028F000079B5A7807991A7001335A1AAA42F8DDD1
:102900004D192E236B7014E001FCFFFFB84B000043
:10291000C04B0000C84B0000D74B0000344C0000F7
:10292000E64B000008080000E703000018FCFFFF6A
:102930001C1C0A9D2D0512D50A9D201C2D0719D49B
:10294000079D2B19013B1878302801D1013CF7E78E
:102950003E28FBD02E3843425841201A0AE02B9DD6
:10296000201C2B68002B05D10A9C082323405A42C7
:102970005341C01A25B0F0BDF0B58FB00C1C071C38
:10298000161C0021282204A81D1CFFF7C0FA0A23E8
:1029900007930E4B621E06930D4B00240195029384
:1029A0000096231C04A8049700F08EF8069B051CD3
:1029B000013B0693A34202DB049B1C7003E0201C36
:1029C00004A900F0EFFF281C0FB0F0BDFFFFFF7F50
:1029D000F91F00000FB473B506AB20CB6846012188
:1029E0002A1C0193FFF7C8FF041E14DD461C301C8F
:1029F00001F090F9009000280DD0311C2A1C019B99
:102A0000FFF7BAFF064B0099D86B221CFEF73EFF7A
:102A1000009801F0DFF9201C76BC08BC04B0184710
:102A2000F000001070B5244CA02200215200201CA0
:102A3000FFF76DFAC02001F0D5F9204D0021C0222A
:102A40002860FFF764FA28680023282218215A43D7
:102A50005943A218411801335162082BF5D1221CA9
:102A60001749002001F048F8802280235B01201CD8
:102A70000021D20000F0CEFE261C124D2836291C63
:102A8000321C012001F038F880228023301C5B01C9
:102A900050340021D20000F0BDFE291C221C02206F
:102AA00001F02AF880228023201C0021D2005B0143
:102AB00000F0B0FE70BDC046F0000010EC00001049
:102AC000E84B0000EA4B0000F0B5D1B00E920F9336
:102AD0000024569B579D071C079418785C1C0A9489
:102AE000002801D100F092FE0026252825D0079C61
:102AF000079E0F990134F317994207DC01D000F0CB
:102B000072FE0E9AB24201D800F06DFEBB68013B26
:102B1000BB60002B05DB3B685A1C3A60187000F064
:102B200062FE391C00F03EFF00F05DFE2B2C0BD93D
:102B30002D2C0FD101231E430A920A9B0A9A1C785E
:102B400001322B2CF2D10AE0202C0AD0232C0AD1FE
:102B50000823F0E7302C06D180239B00EBE702230B
:102B6000E9E70423E7E72A2C0CD12B682A1D002B68
:102B700002DA01215B424E400A98151C447802306B
:102B80000A9008E00023211C3039C8B20A920928B3
:102B900001D800F02CFEDA43D217134000210C9329
:102BA0000B912E2C1CD10A9A14782A2C06D12C6851
:102BB00004350B94547802320A9209E00A9B221CD5
:102BC000303A0133D1B20A93092901D800F016FE38
:102BD0000B98002802DB10231E4301E000210B911B
:102BE0006C2C0ED10A9A14786C2C05D15478602381
:102BF00002321E430A9204E00A9B01330A93202307
:102C00001E434C2C01D0712C04D10A986023047807
:102C10001E431EE0682C0FD10A990C78682C05D150
:102C200080235B004C781E4302311AE00A9A80230D
:102C300001320A921E4315E06A2C06D140231E433E
:102C40000A9B1C7801330A930CE07A2C04D10A9871
:102C5000047801300A9005E0742C03D10A990C78AD
:102C600001310A91672C1EDC652C00DBAAE2472C9F
:102C700000D1A7E209DC412C00D19DE2452C00D116
:102C8000A0E2002C00D1B2E027E0612C00D193E259
:102C900003DC582C00D187E11FE0632C19D0642C91
:102CA00000D138E219E0702C00D1D4E108DC6E2CA0
:102CB00000D1A2E000DDD8E1692C00D12BE20CE0CC
:102CC000752C00D1FAE1782C00D198E1732C04D155
:102CD000B4E02C1D11942C6800E011950C98012390
:102CE000013833400890109333D120210B91B20565
:102CF00001D530260B96002500260C9A0798023A3B
:102D0000521B43190892002A22DB0798C11728900A
:102D100029910F98289A299B52197341984203DCF4
:102D200011D10E9991420ED9BB68013BBB60002BBB
:102D300005DB3B685A1C3A600B9A1A7003E00B984B
:102D4000391C00F02FFE01220023AD185E41D4E7AC
:102D50000793079E07990F9A0136CB179A4203DC17
:102D600010D10E9B8B420DD9BB68013BBB60002B81
:102D700004DB3B685A1C3A601C7003E0201C391CC1
:102D800000F010FE109C0796002C01D100F029FDE8
:102D9000002400250899E343CB4221D4F0172A965A
:102DA0002B900F992A9A2B9B12196B41994203DCA5
:102DB00011D10E9890420ED9BB68013BBB60002B2D
:102DC00005DB3B685A1C3A6020221A7003E0202081
:102DD000391C00F0E7FD01220023A4185D41D9E76A
:102DE000CB43DB170B40F318079300F0FAFC0A9C67
:102DF0001195013C0A9400F0F4FC2B1D11932B68F3
:102E0000700605D5079CE2171C605A6000F0E9FCCB
:102E1000B00603D5079C1C6000F0E3FCF00503D569
:102E2000079C1C7000F0DDFC300603D5079C1C805D
:102E300000F0D7FC079E1E6000F0D3FC2C1D2D680F
:102E400011941095002D01D1BF4C1094109800F0F2
:102E500031FD041CF00603D50B998C4200DD0C1CDF
:102E60000C9A0123121B334008920C9337D1202374
:102E70000B93B00501D530260B9600250026089A45
:102E8000013A531B22D40798C1172C902D910F980B
:102E90002C9A2D9B52197341984203DC11D10E9943
:102EA00091420ED9BB68013BBB60002B05DB3B6840
:102EB0005A1C3A600B9A1A7003E00B98391C00F008
:102EC00071FD01220023AD185E41D8E7089EF3434F
:102ED000DB173340079ED21AF61807960892002592
:102EE0000026AC4224DD0798C1172E902F910F9831
:102EF0002E9A2F9B52197341984203DC13D10E99DD
:102F0000914210D9BA681098013ABA604319002A60
:102F100005DB3A68511C39601B78137003E01878A0
:102F2000391C00F03FFD01220023AD185E41D8E7B7
:102F3000E343079EDB171C4036190C9C0796002CB8
:102F400001D100F04EFC00240025089EE343F3422B
:102F500022D4079E0F99F01730963190309A319B0A
:102F600012196B41994203DC11D10E9E96420ED983
:102F7000BB68013BBB60002B05DB3B685A1C3A6019
:102F800020221A7003E02020391C00F00BFD0122E2
:102F90000023A4185D41D8E7F343079CDB173340B7
:102FA000E418079400F01DFC402333400AD0073595
:102FB00007239D43281C083029686A6811900491F2
:102FC000059204E02A1D2D68119204950593802333
:102FD000334006D0684610210B5A00220493059214
:102FE00006E0F00504D569461020425C0593049282
:102FF000310701D5554D00E0554D564A29E0402393
:1030000033400AD0073507239D43281C0830296820
:103010006A6811900491059204E02A1D2D681192AE
:10302000049505938023334006D0684610210B5A3F
:1030300000220493059206E0F00504D569461020AD
:10304000425C05930492310701D5434D00E0404DA9
:10305000424A9446ABE0281D404A2D680021049561
:103060001190059194463C4DC7E0402333400AD06F
:10307000072307359D432B1C083328686968119383
:103080000490059104E0291D2D6811910495059384
:103090008023334006D06A461020835A00210493CF
:1030A000059106E0F20504D5684610210A5C0593F7
:1030B0000492320700D477E0294D76E04023334074
:1030C0000AD0072307359D43291C08312A686B68FD
:1030D00011910492059304E0281D2D681190049528
:1030E00005938023334005D069461022535A049338
:1030F000002305E0F00504D569461020425C0492E7
:10310000059310223240124B944675D0154A002187
:1031100016408C4670E072060AD5072307359D439A
:103120002B1C08332868696811931490159105E0E9
:103130002B68291D1493DB1711911593320613D5B3
:1031400014A80023C35E14E0EC4B0000F34B000016
:10315000344C0000FB4B0000F64B00000C4C000010
:10316000F94B0000FFFDFFFFF10505D514AA002370
:10317000D3561493DB171593159B002B08DA149A7A
:10318000159B00215042994104900591C84D0CE0D7
:103190001498159904900591B10703D4720703D5CB
:1031A000C44D02E0C44D00E0C44D00239C46F0062F
:1031B00023D5C3490E4020E010231E4202D10D2129
:1031C0001E430B918023DB003343F20601D4062615
:1031D0000B96072207359543286869682E1C469090
:1031E0004791002100220836049105920022119691
:1031F00094461E1C151C00E01D1C079B4395D81708
:1032000032933390329833990E9A0F9B121A8B4156
:10321000089209930B9901235B4244934593429191
:103220000023552048A958540133202BF9D182237B
:10323000DB001E4201D101234293672C16DC652C72
:1032400000DBC9E0472C00D1C6E006DC412C00D1F0
:10325000C2E0452C00D0CFE0BEE0612C00D1BBE045
:10326000642C11D0582C00D0C6E010E0702C0ED089
:1032700005DC692C08D000236F2C21D0BCE0752C14
:1032800002D0782C03D0B7E0002410942FE0002364
:103290000499059C0B93214300D1AFE004980F21C2
:1032A00001406246505C48A9585405980499059A13
:1032B0000407080904431109049405910133E7E761
:1032C000049A05980B93024300D197E004980721D4
:1032D0000140303148AA99540599049A059C480741
:1032E000D1080843E208049005920133E8E7109CF6
:1032F000049B05980B94034300D17FE0049A059941
:103300009208141C049A8B071C43520820948808C6
:10331000CB07141C21901C43480822942390229828
:103320002399209A219B12184B4114091907201C3C
:1033300008431909189019911898199912184B41B6
:10334000140A1906201C0843190A1A901B911A988E
:103350001B9912184B41140C1904201C0843190C1A
:103360001C901D911C981D9912184B410021269309
:1033700027912698279912184B41D4085907201CE9
:103380000843D9081690179106240025049A059B36
:1033900016981799A4185D410A22002301F0C2FA79
:1033A000241A8D4120092B07011C19432A091E915B
:1033B0001F92169817991E9A1F9B12184B410A20AC
:1033C00050430499109C3031081A48A960540134C4
:1033D0001094049205938AE743AB009342AB0193A8
:1033E00044AB029345AB0393201C46A948AA331C67
:1033F000589CA0470B9001E000240B948023DB0035
:10340000334024930DD000234293449B002B01DDD5
:10341000013B4293459B002B0BDD4298013BC318B7
:1034200003E042990B9C0B1B01D4429301E0249CC6
:1034300042940B98429900254418439800F03AFAB8
:103440000C9A01233340141B25931E4B241A10940D
:103450001E4214D10024002507E00998A84216DC7A
:1034600012D001220023A4185D41109B013B1A1BBE
:10347000F3D5109CE543ED1725405B1B109300230B
:1034800000241293139434E00899A142E9D9BB684F
:10349000013BBB60002B05DB3B685A1C3A602022D5
:1034A0001A70DEE7391C202000F07CFAD9E7C0460C
:1034B000E64B0000B64B0000B44B0000344C00005B
:1034C000FFFDFFFF01020000E817349535903498A6
:1034D0003599129A139B12184B410999994216DC9F
:1034E00012D001220023129813998018594112908A
:1034F0001391439B129C5A1C43921B782C190C94D9
:103500009C46002BE0D112E0089C9442E9D9BB68AC
:10351000013BBB60002B05DB3B6860465A1C3A60F0
:103520001870DEE76046391C00F03CFAD9E72598B0
:10353000002833D12024B10500D5302400250026F1
:10354000109A013A531B21D40C9A0998D31736923A
:103550003793369A379B52197341984203DC10D146
:10356000089991420DD9BB68013BBB60002B04DB7D
:103570003B685A1C3A601C7003E0201C391C00F0A8
:1035800011FA01220023AD185E41D9E7109C0C9E70
:10359000E343DB172340D21AF4181092249E002E26
:1035A00002D10025002698E000260B98864200DB19
:1035B000E5E048ABF05C3C2804D03E2865D1002013
:1035C000002145E0002100220C910D92449B0C99B2
:1035D000013B65184493002B6DDBE2173992389458
:1035E000389839990C9A0D9B12184B4109999942B8
:1035F00003DC11D1089890420ED9BB68013BBB6037
:10360000002B05DB3B685A1C3A6030221A7003E03D
:103610003020391C00F0C6F90C980D9901220023C6
:10362000801859410C900D91D0E7E2173B923A94E3
:103630003A983B990C9A0D9B12184B410999994263
:1036400013DC0FD0012200230C980D9980185941EA
:10365000459B0C900D910C99013B65184593002BEF
:10366000E3DA28E008989042ECD9BB68013BBB60E4
:10367000002B05DB3B685A1C3A6030221A70E1E7E8
:10368000391C302000F08EF9DCE7099A651CE3173D
:103690009A4203DC0FD1089BA3420CD9BB68013BC3
:1036A000BB60002B04DB3B685A1C3A60187002E0D8
:1036B000391C00F077F901362C1C76E7E1173C94B1
:1036C0003D9109983C9A3D9B5219734198420FDCF9
:1036D0000BD001220023AD185E41429B6219013BD1
:1036E0000C924293002BE9DA12E008999142F0D94A
:1036F000BB68013BBB60002B05DB3B685A1C3A6092
:1037000030221A70E5E7391C302000F04BF9E0E771
:10371000002400250B9E211C331B002B2ADD0C9E50
:10372000F0173E963F90099E3E9A3F9B12196B41BF
:103730009E4203DC19D10898904216D9BB68013B20
:10374000BB60002B09DB3B680B985A1C48AE3A6003
:10375000C94332188A5C1A7007E00B9E48AAC94315
:103760009319C85C391C00F01DF901220023A4182C
:103770005D41CFE7F443E41734400C9E3419259E95
:10378000002E2BD0002500261099EB43CB4221D4EC
:10379000E017409441900999409A419B5219734116
:1037A000994203DC11D1089890420ED9BB68013BC5
:1037B000BB60002B05DB3B685A1C3A6020221A7064
:1037C00003E02020391C00F0EDF801220023AD18A1
:1037D0005E41D9E7CB43DB170B40E418079E36194F
:1037E0000796119D079C07940A9BFFF776F90A2418
:1037F000634314785B180132FFF7C5F90B9C0A216B
:1038000061438A180B921C78FFF7D9F9079851B0D9
:10381000F0BDC046F0B5C5680124AE071AD08026B9
:10382000B600B2420BD08026F600B24204D0802609
:10383000A640B2420ED102E0416A231C04E0064ECB
:103840005F1E0124B74205D82A4301610160C361AC
:10385000C2600024201CF0BDFEFFFF000378CAB246
:10386000934204D0002B01D00130F7E7181C7047B9
:10387000031C0B4330B59A0711D1021C0B680B4C8B
:103880001D190B4C9D43254202D108C20431F5E7B6
:10389000D9B211700132002907D01B12F8E70023BA
:1038A000CA5CC2540133002AFAD130BDFFFEFEFECD
:1038B0008080808010B5411C820706D00130431EF5
:1038C0001B78002BF8D1401A18E003680C4A9C18AA
:1038D0000C4A9C43144201D10430F6E7DCB2421C8E
:1038E000002C0AD0FF242402821C234205D0FF248E
:1038F0002404C21C234200D0021D501A10BDC04631
:10390000FFFEFEFE8080808070B5041C0C43031C0B
:10391000A5070CD1032A0AD90C680F4D66190F4D63
:10392000A6432E4203D110C30431043AF2E7013A10
:10393000541C10D00C7801335D1E2C700131551EC3
:10394000002C01D02A1CF3E79A18934203D00021DF
:1039500019700133F9E770BDFFFEFEFE80808080A4
:10396000C26820239A43436A10B5041CE2605B6876
:1039700082699A420DD000F0F3F8E268074B1340D9
:1039800010221343626AE3605368A3612369936062
:103990002360E268024B1340E36010BDEFCFFFFFEE
:1039A000BFBFFFFFF8B5514ACB68061C1A400C1C7C
:1039B000CA60980602D5081CFFF7D2FFA268E36828
:1039C000511C0EDA98050CD4022149428A1AA260D1
:1039D000902252021343E36023685A1C22601E7037
:1039E00081E0434A1D1C1A40022A05D00022A26031
:1039F00080221343E36054E03E490B4080210902DA
:103A00008B420AD10021201C00F04EFAE1688906A1
:103A100002D5201CFFF7A4FFE56890235B02F0228B
:103A20002B431201E36015421ED1606900F0C3FF11
:103A300000280BD06A0509D5636A2361236001233E
:103A4000E36192235B022B43E3600DE080277F015B
:103A5000381C00F0C7F99423E2685B022B431A4339
:103A600020612060E761E2609021090122682569F8
:103A70000B4219D0636A99688A4200D9111C491B0C
:103A800009D1636A6A1C9A602260E269511EA160D2
:103A9000DA602E7027E0281C221C00F005F90028AF
:103AA000EFD0012040421FE0511CF0B221601070A5
:103AB000626A2768916884468F4200D9391CE76999
:103AC000491BD760580504D463460A2B01D0B9427C
:103AD00009DB00239560281C2560A360221C00F0F0
:103AE000E3F80028DDD1F0B2F8BDC046FFFFF7FFD4
:103AF0008A10000010A0000070B50D1C061C101CE0
:103B0000141C00F07FF92B78722B06D0772B07D08E
:103B1000612B20D10823114A04E00023012201E097
:103B200004230222013529782B2905D0622908D1E6
:103B300004210A43012102E003210A4302210B432D
:103B4000F0E7E26066611A0706D5201C0021022218
:103B500000F0AAF900E00024201C70BD02800000E3
:103B600038B5436A041C056902689968C36813483C
:103B70001840E06082201840022802D00120404214
:103B80001AE080204002184016D0914200D2111C49
:103B9000A94209D1636AE2689D60094B0020134085
:103BA0002560A060E36007E0491B281C221C00F090
:103BB0007BF80028EED0E1E738BDC046FFFFF7FFF5
:103BC000FFFFFEFF00000000F8B5141C194B184A57
:103BD000061C0F1C00F0DAFD002804D0002323602F
:103BE0001449134823E07A00134D520D301C391C40
:103BF0005319002A15D13D032D0B321C6F00D60F2F
:103C00003E43802736033F03360B52003D4205D02A
:103C10000D0D2D05291C3143101C02E0013B351C04
:103C2000ECE72360054A064B0B40111C1943F8BD15
:103C3000000000000000000002FCFFFF0000E03F69
:103C4000FFFF0F80C046C046D0B5141C114B104A70
:103C5000061C0F1C00F09AFD002802D00D490C48EC
:103C600015E07B005B0D1C190B4B301C9C4206DDE4
:103C70000A4B22221A600A4B1868596807E0002C88
:103C8000ECDD084B64053B406408191C2143D0BDA2
:103C90000000000000000000FE0700004C000010C3
:103CA000384C0000FFFF0F80F7B5D56801900E1C5F
:103CB000141C5769EA0205D51023381C1D4300F077
:103CC00077FEA061114B1D4208D0381CA16900F09D
:103CD00078FE002813DB0E4B1D40E560321C381CBB
:103CE0000199FDF7D3FD801B431E984140424300DC
:103CF0005B08F61AA3699E19A661002805D0E26840
:103D0000802313430120E3604042FEBD1000020007
:103D1000EFFFFDFFF8B52E4FC51C3C68AD0800282D
:103D200019D0002610E0216880228C46A368520535
:103D300091423ED11968626861450ED159689B680D
:103D4000521803326260A360002CECD10C3000F0FA
:103D500057F9421C30D1002039E0AA4206DBE91CA9
:103D6000914203DB80239B05236020E0291C0A315C
:103D70008A4210D980218905201C21600C30A900BD
:103D800041186560A160521B80246405033A0C60F1
:103D90004A608B601BE0002B0BD19200801A00F070
:103DA0002FF90130D7D080239B0523606560201C4C
:103DB0000CE0261C1C1CC7E780239B0503604560A4
:103DC0008460002E01D1386000E0B0600C30F8BD96
:103DD00030020010002803D080230C385B050360FC
:103DE0007047000010B5FFF795FF041E05D1044988
:103DF0001722FDF74BFD00F0D7FD201C10BDC0467B
:103E00001D4C0000F0B5436AC56889B0041C4769C1
:103E100006690193AB0726D02B0716D400F02AF8C9
:103E2000381C00F0C2FD2B0502D5301CFFF7D2FF75
:103E30000F4BAD0DAD059D4207D103A8216A142299
:103E400000F0C2FD03A800F0D1F800211822606A3A
:103E5000FEF75DF8201C00212822FEF758F8019B90
:103E60000020636201E00120404209B0F0BDC0467D
:103E7000000080AD38B5002803D000F0E1F8051C43
:103E80000EE0041C051C0748201800F0D9F8002893
:103E900001D001256D42A02328345B009C42F2D161
:103EA000281C38BDF0000010F7B53B4B0D1CC16855
:103EB000041C161C47690091194269D0381C00F097
:103EC0007AFD0190002863D1012E04D0022E07D084
:103ED000002E5DD123E0201C00F062F82D181EE0BA
:103EE000381C00F065FDE168002804DA80231943DE
:103EF000E16001264DE0626A266893689E4200D91F
:103F0000331CA6699B1926699B1B8E0603D5526834
:103F1000934200DA131C834200DA031CED18002DD3
:103F200036DB009E636AB60404D522689968914224
:103F300000D29A60A1698D420DDB20689A688242A6
:103F400000D2021C20695618361AB54203DCDF681D
:103F5000CE19B54207DB009E00212022A1606160DE
:103F600032435D6010E0009E6D1AB60701D5EF1B6D
:103F7000A760009EF60702D5821AAA186260009A0E
:103F80004519202325609A43044B1A40E26001E062
:103F9000022601960198FEBD03001000BFCFF7FF77
:103FA000C368990705D1104B212201201A604042B5
:103FB00018E0202219030BD5134202D0436A586837
:103FC00004E0036881695A180369D01A013809E0CE
:103FD000134202D0436A586804E0036881695A18A2
:103FE0000369D01A7047C0464C00001010B5041C7D
:103FF000FFF760FC011C201C00F0E0FC10BD00007D
:1040000070B50C4C2368002B01D10B4B2360C61CF0
:10401000256803239E43AE19301C00F035F80028B4
:1040200002D12660281C04E0044B0C2201201A60F7
:10403000404270BD34020010380200104C000010E5
:10404000C36870B5041C032018401AD09A0605D521
:10405000636A201C5D68FFF783FC04E02368A269A3
:104060009D182369ED1AE268064B201C1340E3609B
:10407000FFF776FD291C061C0022201CFFF714FF09
:10408000301C70BDFFCFFFFF08496B46021C8B42FE
:1040900002D901209A4207D2054B002B03D0002001
:1040A0009A42404100E0181C7047C0463802001098
:1040B0000000000000000000F0B58BB01F1C009253
:1040C00001934B000D1C049005915B0D00D181E024
:1040D00053498B4200D17DE07A00520D7AD08A425A
:1040E00078D0D2183B1C6B40DB0FDB0700980393A2
:1040F00080242B031B0B64031C430892FE02420D19
:10410000802316431B061E430021221C301C0B1C5F
:1041100000F008FC069007910099201CCD020021B8
:104120002A1C0B1C00F0FEFB09910021041C049AC0
:10413000301C0B1C00F0F6FB009001910021281CA4
:10414000049A0B1C00F0EEFB009A019B8446081CAD
:104150000021261C0F1C36184F41B6185F41099AE2
:104160003C1C0D1C0B1C12196B41644606980799E8
:1041700012184B41A1082B48089C0E4321182A48CD
:1041800098420AD329481D1C2118141CA4185D410B
:10419000F00F221C02432B1C7600F40F002512198D
:1041A0006B418020141C0006864201D1012084430B
:1041B0001F48814205D80A050399201C0B43D118DA
:1041C00027E0002903DB1B4B039C234300E0039BF8
:1041D000191C1DE03A1C6A401749D20FD2076B0028
:1041E0008B4204D87800884204D8111C10E013498F
:1041F0008B4207D111487900814203D85B0D01D071
:10420000490D02D10549044803E00A4B191C11432A
:1042100000200BB0F0BDC046000000000000F87F99
:10422000FF07000001FCFFFFFFFF0F0000FCFFFF86
:10423000FD0700000000F07FFFFFDFFF0000E0FF50
:10424000F0B50D1C87B06E000490059102920393A7
:10425000191C760D5FD04C4A96425CD05B005B0D1A
:1042600059D0934257D00A1C6A40E802049D029F2D
:10427000CC02F61A80216B0D184309067B0D1C43F6
:104280000B1C00920343EA020C43FD029C4202D83D
:1042900003D1954201D93D4906E0DF07590850088E
:1042A0000B1C3A1C3A490243E70768087618384362
:1042B0006108352500246400994206D801D1904256
:1042C00003D80127121A8B413C4392185B416F1EA1
:1042D000212D02D101943D1CEDE73D1EEBD1994209
:1042E00008D801D1904205D8019D01346342634151
:1042F000ED1801950099274BCF0FFF079E4204D878
:104300003605019DF71979191EE0002E01DB224EBA
:104310003743391C2AE0214F6E00BE4228D84A009C
:10432000BA4225D80B1C2B435B005B0D5B0503D108
:1043300012491148181C1DE00B1C6B40DB0F740D5B
:10434000DB07640502D1191C201C13E0540D640521
:1043500003D1114A111C1943F6E7BA4203D00E4AA1
:10436000111C194302E0964202D0191C002001E002
:104370000348044907B0F0BD000000000000F87FCA
:10438000000000000000F87FFF070000FD030000B0
:10439000FE030000FD0700000000F07F0000E0FFCA
:1043A000F0B587B002900391039F1D1C009201930A
:1043B000049005913A1C9C46049E009B6A4006D5D9
:1043C00080263606AB19009A00F0DEF8C9E0AF424D
:1043D00003D39E420AD8AF4208D180200006039F33
:1043E00012185740049B6A40009E944661460A0D8D
:1043F000614862493C0DA21A2140814200D1A3E0EC
:104400008A4200D19AE0604601033F0380204003C6
:104410003F0B090B074301431F2A50D8081CD0400B
:104420003F1A2025181CD040AA1A91400843301A80
:104430008642B6417642191CBF1B9140061C0029DA
:1044400005D0013E731C5A4253414942FF1AC02312
:104450005B031F4251D1F30FC90F76007F000E435B
:104460001F43331C3B4301D0A31E01E0191C52E043
:104470007A0B05D1320E3F0217433602083BF7E7AD
:104480007A0C04D1320F3F0117433601043BFA0C7A
:1044900004D1B20FBF001743B600023B3A0D04D15E
:1044A000F20F7F0017437600013BE40ADA0A9442D8
:1044B00002D11B05D91953E0E107002051E0352A4C
:1044C0001BD8151C203D081CE840301A8642B64116
:1044D0007642BF1B4026B21A91401A1CEA40114393
:1044E0001B0602D0FF23194302E0061C002904D05A
:1044F000461E434243414942FF1AFB020DD4013C90
:10450000630507D0F30F7F001F437600CB0F1E43D8
:10451000490002E02105181C23E0194B24051F4027
:10452000002909DA013673427341FF1880231B0604
:10453000994201D101239E43391911E0114B9A424E
:1045400002D8111E09D00AE03B0302D007490648F1
:1045500007E0002A03D106480649101C01E0391C77
:10456000301C07B0F0BDC046000000000000F87F1E
:10457000000000000000F87FFF070000FFF7FFFFCA
:10458000FFFFEFFFFE070000F0B587B00290039138
:10459000039F1D1C00920193049005913A1C9C46B8
:1045A000049E009B6A4006D580263606AB19009A09
:1045B000FFF7F6FE7DE0AF4205D2039F049B574014
:1045C000009E6A4094463E493E4A380D0140914261
:1045D00068D06446220D821A8A425AD021033F03D2
:1045E000802464033F0B090B274321431F2A10D863
:1045F0000C1CD4403F1920251C1CD440AA1A914001
:10460000214376188E42894149427F18191C9140F6
:1046100014E0352A12D8141C203C0D1CE5407619F4
:10462000AE42AD416D427F194025AA1A91401A1C35
:10463000E24011431B0601D0FF231943BB0218D5EA
:10464000013673427341FF18002901D102239E43B2
:1046500002057B089B181C4A5900914205D8760830
:10466000FF07301C191C384323E0431C19050020A8
:104670001FE00138002909DA013673427341FF183F
:1046800080231B06994201D101239E430305F9189B
:104690000EE00E4B9A4205D8002A08D1FF0FF90709
:1046A000101C06E03B0302D00449034801E0391C1A
:1046B000301C07B0F0BDC046000000000000F87FCD
:1046C000FFF7FFFFFF070000FFFFDFFFFE0700000F
:1046D0000B1C400DC90208438021090610B50B4C84
:1046E0000843190D611AC840FF290ED9E024E400DF
:1046F0004042214209D00020590006D504495C00FF
:104700008C4202D8D80F034BC01810BD1E04000005
:104710000000E0FFFFFFFF7F10B5002802D1031C5F
:10472000021C25E0030C01D1000402E080235B049D
:10473000C918030E01D1000202E080231B04C9182E
:10474000030F01D1000102E08023DB03C918830FAE
:1047500001D1800002E080239B03C918002801DBFF
:10476000400002E080235B03C918C41263184205AD
:10477000101C191C10BDC10F08B5C90700D040425C
:104780008023DB05C918FFF7C7FF08BDF7B50D1C6F
:10479000009201931F1C9C466B000C1C009A011C8C
:1047A000184304D17D0015430120002D07D00020BF
:1047B000644504D1914202D1014A9A424041FEBD72
:1047C0000000E0FFF0B585B00D1C009201931A1CAB
:1047D0008C46029003911F1C191C2A43164B0ED4C1
:1047E0007A0000209A4224D80120AF4221D800202C
:1047F000AF421ED1029A009B9A42804118E06A00A3
:1048000000209A4215D87C009C4212D8029B1A4381
:10481000824203D1009A144384420AD001208C457D
:1048200007D800208C4504D1009B029A9342804116
:10483000404205B0F0BDC0460000E0FFF0B587B0D3
:10484000009201930D1C049005910E1C019904988F
:10485000029203930A1C8446029F2A43144B0CD4F1
:104860004A0000249A421FD80124A9421CD80024DF
:10487000A94219D18742644116E06D0000249D428F
:1048800012D8019842009A420ED801248E420BD8C9
:1048900001D1BC4508D2049900240D43A54203D19F
:1048A000029B1A4354425441201C07B0F0BDC0463D
:1048B0000000E0FFF0B585B0029003910D1C0C1CC8
:1048C000029900920193181C1F1C28436B008C4610
:1048D000009A134D00280CDB0020AB421ED80120AB
:1048E000BC421BD80020BC4218D1634693424041D1
:1048F00014E00020AB4211D87E00AE420ED8012059
:10490000A7420BD801D1624508D2029900200B437F
:10491000834203D1009B33435842584105B0F0BD58
:104920000000E0FF10B543435143C918040C130CB9
:104930005C43091992B2040C544380B24343504380
:104940002204240C801861411A041B0C8018594160
:1049500010BD8446830708D18B0706D1131F04D3EB
:1049600004C904C0043BFBD21A1D524205D0891A67
:10497000801A8B5C83540132FBD1604670478446B9
:10498000043A09D3830707D109060B0A19430B0C14
:104990001943043A02C0FCD2043203D00170013042
:1049A000013AFBD160467047FEE701204042704764
:1049B00001204042704701204042704701204042A0
:1049C000704701204042704701204042704700007C
:1049D0008C040000160400002C0400008C0400006D
:1049E0008C0400002C040000660400002C0400006D
:1049F0002C0400002C0400008C0400008C04000037
:104A00002C040000400400008C040000500400004E
:104A1000D0120000D8120000F6120000EC120000C4
:104A2000001300000A130000141300002E130000EE
:104A30004A13000068130000701300007A1300008E
:104A4000AC130000841300008C1300009C130000C2
:104A5000101500001A150000241500002C15000088
:104A60003615000040150000080808087777772EF3
:104A7000676F6F676C652E636F6D00000202020244
:104A80000202020202020202020202024D41433A03
:104A900020253032583A253032583A253032583AAB
:104AA000253032583A253032583A253032580D0ADE
:104AB0000000000049503A2025642E25642E25640C
:104AC0002E25640D0A00000047573A2025642E2544
:104AD000642E25642E25640D0A000000534E3A20F2
:104AE00025642E25642E25642E25640D0A00000001
:104AF000444E533A2025642E25642E25642E2564C9
:104B00000D0A000057495A4348495020496E6974BC
:104B100069616C697A6564206661696C2E0D0A00B2
:104B200000010100001BB70015171800000101006B
:104B30000002010000030100000401000005010063
:104B400000060100000B010100120100001301002A
:104B500000040100000501000116100001141000FE
:104B600001171000011510000113100000011000C2
:104B70000010100000000000C02709009005100080
:104B8000C05C1500F0B31A00200B2000009F240029
:104B9000E0322900C0C62D0050973100E067350093
:104BA0007038390000093D00401640008023430062
:104BB000C03046002B00200030782563702564004B
:104BC0003058256350256400307825632E252E2A21
:104BD0006C6C7870256400305825632E252E2A6C65
:104BE0006C58502564002D0072007700286E756C9B
:104BF0006C290030580030780030003031323334C6
:104C00003536373839414243444546003031323336
:104C1000343536373839616263646566002A2A2A7A
:104C2000205F437379735F616C6C6F6320666169A9
:104C30006C65640A00000000FFFFFFFFFFFFEF7FCD
:104C400000C000000102573535303000510F000020
:104C5000550F0000590F00005D0F0000610F0000AC
:044C6000690F0000D8
:0400000300000141B7
:00000001FF
